:03000000020CB53A
:0C0CB500787FE4F6D8FD7581310209E279
:100C47003F065B4F666D7D077F6FFEFDFBF7EFDFAE
:100C5700BF7FFEFDFBF70708092F0405062A0102DF
:0E0C6700032D43003D2B0000000000000000A4
:100C9700D3EF9400EE940040147D6E7C00ED1D7040
:0D0CA700011CED4C70F7EF1F70E61E80E39E
:010CB400221D
:060B87008B1B8A1C891D76
:100B8D00781E7C007D007BFF7A0C79477E007F0A02
:100B9D001208D078287C007D007BFF7A0C79517E7D
:100BAD00007F081208D0E4F530F531D2A1E4F580CC
:100BBD00C2A1D2A27580FFC2A2D2A274282531F89B
:100BCD00E6F580C2A2D2A1AB1BAA1CA91D8531825C
:100BDD008530831208F6241EF8E6F580C2A17F0148
:100BED007E00120C970531E53170020530C3940873
:060BFD00E530940040B554
:010C030022CE
:060C75007B007A00790803
:060C7B008B1B8A1C891D81
:100C8100E4FFAB1BAA1CA91D8F82758300E4120926
:050C9100230FBF08ED78
:010C9600223B
:100B0200751BFF781C7C007D007BFF7A0C79597E77
:100B1200007F041208D078207C007D007BFF7A0CD5
:100B2200795D7E007F101208D0E4FB741C2BF8E67E
:100B3200F590E59054F0F964F060437F0A7E00126C
:100B42000C97E59054F0F964F06033E4FD7E007494
:100B520010A805088005C333CE33CED8F9FFE9F5D6
:100B620082EF55827014E59054F0FFBFF0F8EB2548
:100B7200E025E024202DF8E6FF220DBD04CF0BBBBB
:040B820004A97FFF44
:010B8600224C
:100C04008E1B8F1CEB24D6601F24FD601124FE6014
:100C14001E2404702AE51C2DFFE51B3CFE22C3E5BF
:100C24001C9DFFE51B9CFE22AE1BAF1C020945ED7B
:100C34004C6007AE1BAF1C0209577E007F0022E404
:030C4400FEFF228E
:1009E20078087C007D007BFF7A0C796D7E007F08A1
:1009F2001208D0E4F510F511F512F513F514F515FA
:040A0200F516F517D9
:100A0600120B028F1AE51AF47003020AF6E51AB4FD
:100A16004317120C75E4F515F516F512F513F510D6
:100A2600F511F514F517020AB2E51AB43D27E517D4
:100A360064027078AB14AD13AC12AF11AE10120C89
:100A4600048E158F16851510851611E4F512F5130B
:100A56007517018057E51AC39400403BE51AD394F5
:100A6600095034E5177015AE10AF11FC7D0A120956
:100A760045EF251AF511EC3EF5108030E5176402B6
:100A8600702AAE12AF13FC7D0A120945EF251AF53E
:100A960013EC3EF5128015E5177003751701E5177F
:100AA600B40109851A14751702120C75E517B402FC
:100AB60006AE12AF138004AE10AF118E188F19E474
:100AC600FBFAAE18AF197C007D0A120957C37407EA
:100AD6009B2408F8A605AE18AF197C007D0A1209FA
:100AE600578E188F190BBB00010AEB64084A70D2A7
:090AF6007B007A007908120B87DD
:030AFF00020A06E2
:10080000E709F608DFFA8046E709F208DFFA803EDA
:1008100088828C83E709F0A3DFFA8032E309F608C7
:10082000DFFA8078E309F208DFFA807088828C832F
:10083000E309F0A3DFFA806489828A83E0A3F608E3
:10084000DFFA805889828A83E0A3F208DFFA804CBD
:1008500080D280FA80C680D4806980F28033801094
:1008600080A680EA809A80A880DA80E280CA8033FD
:1008700089828A83ECFAE493A3C8C582C8CCC58375
:10088000CCF0A3C8C582C8CCC583CCDFE9DEE78045
:100890000D89828A83E493A3F608DFF9ECFAA9F0C4
:1008A000EDFB2289828A83ECFAE0A3C8C582C8CC1A
:1008B000C583CCF0A3C8C582C8CCC583CCDFEADE33
:1008C000E880DB89828A83E493A3F208DFF980CC95
:1008D00088F0EF60010E4E60C388F0ED2402B4048E
:1008E0000050B9F582EB2402B4040050AF23234535
:0608F00082239008507302
:1008F600BB010CE58229F582E5833AF583E02250B7
:1009060006E92582F8E622BBFE06E92582F8E22200
:0D091600E58229F582E5833AF583E493221A
:10092300F8BB010DE58229F582E5833AF583E8F00A
:10093300225006E92582C8F622BBFE05E92582C8B6
:02094300F2229E
:10094500EF8DF0A4A8F0CF8CF0A428CE8DF0A42EC6
:02095500FE2280
:10095700C2D5EC30E709B2D5E4C39DFDE49CFCEEBB
:1009670030E715B2D5E4C39FFFE49EFE12098DC39D
:10097700E49DFDE49CFC800312098D30D507C3E498
:060987009FFFE49EFE222A
:10098D00BC000BBE0029EF8DF084FFADF022E4CC4E
:10099D00F875F008EF2FFFEE33FEEC33FCEE9DEC17
:1009AD00984005FCEE9DFE0FD5F0E9E4CEFD22ED5D
:1009BD00F8F5F0EE8420D21CFEADF075F008EF2FA7
:1009CD00FFED33FD4007985006D5F0F222C398FD98
:0509DD000FD5F0EA2235
:00000001FF
