:060000000200160200A23E
:03000B0002023EB0
:100013000202A6787FE4F6D8FD75812002005D0216
:100023000111E493A3F8E493A34003F68001F208DB
:10003300DFF48029E493A3F85407240CC8C333C422
:10004300540F4420C8834004F456800146F6DFE48D
:10005300800B0102040810204080900290E47E018E
:100063009360BCA3FF543F30E509541FFEE493A300
:1000730060010ECF54C025E060A840B8E493A3FA12
:10008300E493A3F8E493A3C8C582C8CAC583CAF09E
:10009300A3C8C582C8CAC583CADFE9DEE780BEC07C
:1000A300E0C0F0C083C082C0D075D000C001C002E0
:1000B300C003C004C005C006C007D204750D00E428
:1000C300FDFF1201C830B32D20A408C290C291D203
:1000D30092801A20A50ED290C291C292C293C2946A
:1000E300D29580E120A6DED290C291C292D293C271
:1000F30094C29580D0D007D006D005D004D003D0C9
:1001030002D001D0D0D082D083D0F0D0E032758934
:1001130001758CFC758A66D2A9D2A8D2AAD288D2DC
:100123008AD2AFD28C12017CE50DD39400403E20DD
:10013300043BE50A700AE50E950B250DF50F800EBD
:10014300E50A64016005E50AB40308850D0F850D12
:10015300108011E50AB4020C850D0FC3E50E950B53
:10016300250DF510AD10AF0F1201C880BB2004B5EB
:10017300E50A045403F50A80AC200448E50A146038
:100183001814602114602E24037039D290C291C2D6
:1001930092C293C294D2958018D290C291C292C255
:1001A30093D294801AC290C291D292D293C294C233
:1001B30095850B0D22C290D291C292D293C294C262
:1001C30095850C0D228F12A905E51275F00A84FF9F
:1001D300D202C203120204E51275F00A84AFF0D210
:1001E30002D203120204E975F00A84FFC202C203B9
:1001F300120204E975F00A84AFF0C202D2030202CC
:1002030004EF9002AC93F58030020B300304C2A1DB
:10021300800DC2A08009300304C2A38002C2A27F62
:10022300057E00120270300209300303D2A122D2EC
:10023300A022300303D2A322D2A222C0E0C0D075F1
:100243008CFC758A660509E50970020508C394E804
:10025300E5089403401220040F750800750900E5B2
:100263000DD394004002150DD0D0D0E032E4FDFC54
:10027300C3ED9FEC9E5015E4FBFA0BBB00010AEBA8
:10028300646E4A70F50DBD00010C80E422010B057C
:10029300010C03010E08010A00010D00C10402084C
:1002A300000000C204750D00323F065B4F666D7D92
:0302B300077F6F53
:00000001FF
