:0300000002000EED
:10000B000201B6787FE4F6D8FD7581200200550217
:10001B00009AE493A3F8E493A34003F68001F2085B
:10002B00DFF48029E493A3F85407240CC8C333C42A
:10003B00540F4420C8834004F456800146F6DFE495
:10004B00800B0102040810204080900205E47E0121
:10005B009360BCA3FF543F30E509541FFEE493A308
:10006B0060010ECF54C025E060A840B8E493A3FA1A
:10007B00E493A3F8E493A3C8C582C8CAC583CAF0A6
:10008B00A3C8C582C8CAC583CADFE9DEE780BE75CF
:10009B008901758CFC758A66D2A9D2AFD28C1200FD
:1000AB00F7E50DD39400403BE50A700AE50E950B7E
:1000BB00250DF50F800EE50A64016005E50AB40312
:1000CB0008850D0F850D108011E50AB4020C850D06
:1000DB000FC3E50E950B250DF510AD10AF0F1201EB
:1000EB004080BEE50A045403F50A80B2E50A1460A9
:1000FB001814602114602E24037039D290C291C25F
:10010B0092C293C294D2958018D290C291C292C2DD
:10011B0093D294801AC290C291D292D293C294C2BB
:10012B0095850B0D22C290D291C292D293C294C2EA
:10013B0095850C0D228F11A905E51175F00A84FF29
:10014B00D200C20112017CE51175F00A84AFF0D226
:10015B0000D20112017CE975F00A84FFC200C201D2
:10016B0012017CE975F00A84AFF0C200D2010201E2
:10017B007CEF90021993F58030000B300104C2A183
:10018B00800DC2A08009300104C2A38002C2A27FED
:10019B00057E001201E5300009300103D2A122D205
:1001AB00A022300103D2A322D2A222C0E0C0D0757C
:1001BB008CFC758A660509E50970020508C394E88D
:1001CB00E5089403400F750800750900E50DD394FD
:1001DB00004002150DD0D0D0E032E4FDFCC3ED9F02
:1001EB00EC9E5015E4FBFA0BBB00010AEB646E4A64
:1001FB0070F50DBD00010C80E422010B05010C0311
:10020B00010E08010A00010D0002080000003F0664
:08021B005B4F666D7D077F6FEC
:00000001FF
