:0300000002000EED
:10000B000201A5787FE4F6D8FD7581200200550228
:10001B00009AE493A3F8E493A34003F68001F2085B
:10002B00DFF48029E493A3F85407240CC8C333C42A
:10003B00540F4420C8834004F456800146F6DFE495
:10004B00800B01020408102040809001F4E47E0133
:10005B009360BCA3FF543F30E509541FFEE493A308
:10006B0060010ECF54C025E060A840B8E493A3FA1A
:10007B00E493A3F8E493A3C8C582C8CAC583CAF0A6
:10008B00A3C8C582C8CAC583CADFE9DEE780BE75CF
:10009B008901758CFC758A66D2A9D2AFD28C1200FD
:1000AB00E6E50DD39400402AE50A6003B4010EC3C4
:1000BB00E50E950B250DF50F850D10800C850D0F9D
:1000CB00C3E50E950B250DF510AD10AF0F12012FDB
:1000DB0080CFE50A045403F50A80C3E50A146018BF
:1000EB0014602114602E24037039D290C291C292F5
:1000FB00C293C294D2958018D290C291C292C293ED
:10010B00D294801AC290C291D292D293C294C295C9
:10011B00850B0D22C290D291C292D293C294C295FA
:10012B00850C0D228F11A905E51175F00A84FFD2FC
:10013B0000C20112016BE51175F00A84AFF0D20019
:10014B00D20112016BE975F00A84FFC200C20112E1
:10015B00016BE975F00A84AFF0C200D20102016BAA
:10016B00EF90020893F58030000B300104C2A180A0
:10017B000DC2A08009300104C2A38002C2A27F0578
:10018B007E001201D4300009300103D2A122D2A08B
:10019B0022300103D2A322D2A222C0E0C0D0758CA0
:1001AB00FC758A660509E50970020508C394E8E544
:1001BB00089403400F750800750900E50DD39400F2
:1001CB004002150DD0D0D0E032E4FDFCC3ED9FEC26
:1001DB009E5015E4FBFA0BBB00010AEB646E4A70F0
:1001EB00F50DBD00010C80E422010B0A010C03018B
:1001FB000E0D010A00010D0002080000003F065B16
:07020B004F666D7D077F6F58
:00000001FF
